{
  "_format": "hh-sol-artifact-1",
  "contractName": "Saintfund",
  "sourceName": "contracts/Saintfund.sol",
  "abi": [
    {
      "inputs": [],
      "stateMutability": "nonpayable",
      "type": "constructor"
    },
    {
      "anonymous": false,
      "inputs": [
        {
          "indexed": false,
          "internalType": "address",
          "name": "projectAddress",
          "type": "address"
        },
        {
          "indexed": false,
          "internalType": "address",
          "name": "beneficiary",
          "type": "address"
        },
        {
          "indexed": false,
          "internalType": "uint256",
          "name": "amount",
          "type": "uint256"
        }
      ],
      "name": "DonationSent",
      "type": "event"
    },
    {
      "anonymous": false,
      "inputs": [
        {
          "indexed": false,
          "internalType": "string",
          "name": "message",
          "type": "string"
        }
      ],
      "name": "Error",
      "type": "event"
    },
    {
      "anonymous": false,
      "inputs": [
        {
          "indexed": false,
          "internalType": "uint256",
          "name": "id",
          "type": "uint256"
        },
        {
          "indexed": false,
          "internalType": "string",
          "name": "title",
          "type": "string"
        },
        {
          "indexed": false,
          "internalType": "contract SaintProjects",
          "name": "addr",
          "type": "address"
        },
        {
          "indexed": false,
          "internalType": "address",
          "name": "creator",
          "type": "address"
        }
      ],
      "name": "EventProjectCreated",
      "type": "event"
    },
    {
      "anonymous": false,
      "inputs": [
        {
          "indexed": false,
          "internalType": "address",
          "name": "projectAddress",
          "type": "address"
        }
      ],
      "name": "ProjectDeleted",
      "type": "event"
    },
    {
      "stateMutability": "nonpayable",
      "type": "fallback"
    },
    {
      "inputs": [
        {
          "internalType": "address",
          "name": "_projectAddress",
          "type": "address"
        },
        {
          "internalType": "address payable",
          "name": "reciver",
          "type": "address"
        }
      ],
      "name": "RefundTopDoner",
      "outputs": [
        {
          "internalType": "bool",
          "name": "successful",
          "type": "bool"
        }
      ],
      "stateMutability": "payable",
      "type": "function"
    },
    {
      "inputs": [
        {
          "internalType": "address",
          "name": "_projectAddress",
          "type": "address"
        },
        {
          "internalType": "address payable",
          "name": "reciver",
          "type": "address"
        }
      ],
      "name": "Withdraw",
      "outputs": [
        {
          "internalType": "bool",
          "name": "successful",
          "type": "bool"
        }
      ],
      "stateMutability": "payable",
      "type": "function"
    },
    {
      "inputs": [
        {
          "internalType": "string",
          "name": "_name",
          "type": "string"
        },
        {
          "internalType": "uint256",
          "name": "_targetAmount",
          "type": "uint256"
        },
        {
          "internalType": "string",
          "name": "_title",
          "type": "string"
        }
      ],
      "name": "createProject",
      "outputs": [
        {
          "internalType": "contract SaintProjects",
          "name": "projectAddress",
          "type": "address"
        },
        {
          "internalType": "address",
          "name": "_beneficiary",
          "type": "address"
        }
      ],
      "stateMutability": "payable",
      "type": "function"
    },
    {
      "inputs": [
        {
          "internalType": "bytes32",
          "name": "_hash",
          "type": "bytes32"
        }
      ],
      "name": "deleteProject",
      "outputs": [],
      "stateMutability": "nonpayable",
      "type": "function"
    },
    {
      "inputs": [
        {
          "internalType": "address",
          "name": "_projectAddress",
          "type": "address"
        }
      ],
      "name": "donate",
      "outputs": [
        {
          "internalType": "bool",
          "name": "successful",
          "type": "bool"
        }
      ],
      "stateMutability": "payable",
      "type": "function"
    },
    {
      "inputs": [
        {
          "internalType": "address",
          "name": "_projectAddress",
          "type": "address"
        }
      ],
      "name": "getCollectedAmount",
      "outputs": [
        {
          "internalType": "uint256",
          "name": "",
          "type": "uint256"
        }
      ],
      "stateMutability": "view",
      "type": "function"
    },
    {
      "inputs": [
        {
          "internalType": "address",
          "name": "_beneficiaryAddress",
          "type": "address"
        }
      ],
      "name": "getCreatorBalance",
      "outputs": [
        {
          "internalType": "uint256",
          "name": "",
          "type": "uint256"
        }
      ],
      "stateMutability": "view",
      "type": "function"
    },
    {
      "inputs": [
        {
          "internalType": "address",
          "name": "creator",
          "type": "address"
        }
      ],
      "name": "getCreatorProjects",
      "outputs": [
        {
          "internalType": "contract SaintProjects",
          "name": "",
          "type": "address"
        }
      ],
      "stateMutability": "view",
      "type": "function"
    },
    {
      "inputs": [
        {
          "internalType": "address",
          "name": "_projectAddress",
          "type": "address"
        }
      ],
      "name": "getTargetAmountforProject",
      "outputs": [
        {
          "internalType": "uint256",
          "name": "",
          "type": "uint256"
        }
      ],
      "stateMutability": "view",
      "type": "function"
    },
    {
      "inputs": [
        {
          "internalType": "address",
          "name": "_projectAddress",
          "type": "address"
        },
        {
          "internalType": "address",
          "name": "doner",
          "type": "address"
        }
      ],
      "name": "getdonateAmount",
      "outputs": [
        {
          "internalType": "uint256",
          "name": "bal",
          "type": "uint256"
        }
      ],
      "stateMutability": "view",
      "type": "function"
    },
    {
      "inputs": [
        {
          "internalType": "uint256",
          "name": "",
          "type": "uint256"
        }
      ],
      "name": "listOfBeneficiaries",
      "outputs": [
        {
          "internalType": "address",
          "name": "",
          "type": "address"
        }
      ],
      "stateMutability": "view",
      "type": "function"
    },
    {
      "inputs": [],
      "name": "listOfallBen",
      "outputs": [
        {
          "internalType": "address",
          "name": "listOfBeneficiaries",
          "type": "address"
        }
      ],
      "stateMutability": "view",
      "type": "function"
    },
    {
      "inputs": [],
      "name": "numOfProjects",
      "outputs": [
        {
          "internalType": "uint256",
          "name": "",
          "type": "uint256"
        }
      ],
      "stateMutability": "view",
      "type": "function"
    },
    {
      "inputs": [],
      "name": "owner",
      "outputs": [
        {
          "internalType": "address",
          "name": "",
          "type": "address"
        }
      ],
      "stateMutability": "view",
      "type": "function"
    },
    {
      "inputs": [
        {
          "internalType": "bytes32",
          "name": "",
          "type": "bytes32"
        }
      ],
      "name": "projects",
      "outputs": [
        {
          "internalType": "contract SaintProjects",
          "name": "",
          "type": "address"
        }
      ],
      "stateMutability": "view",
      "type": "function"
    },
    {
      "inputs": [
        {
          "internalType": "address",
          "name": "_beneficiary",
          "type": "address"
        }
      ],
      "name": "receivePayment",
      "outputs": [],
      "stateMutability": "payable",
      "type": "function"
    },
    {
      "inputs": [],
      "name": "totalProjects",
      "outputs": [
        {
          "internalType": "uint256",
          "name": "",
          "type": "uint256"
        }
      ],
      "stateMutability": "view",
      "type": "function"
    }
  ],
  "bytecode": "0x608060405234801561001057600080fd5b50600080546001600160a01b03191633178155600155611dd2806100356000396000f3fe608060405260043610620001155760003560e01c80638da5cb5b11620000a3578063b96ea12d116200006d578063b96ea12d1462000345578063c3cd7897146200037f578063d0a189581462000396578063d3bca41514620003bb578063e32acebf14620003e05762000115565b80638da5cb5b14620002ce5780639204da3814620002f057806396dae73714620003155780639c361e4e146200032e5762000115565b806334d58c1811620000e557806334d58c18146200025157806353b255961462000268578063759c3dc5146200027e57806383d3cfd314620002b65762000115565b8062362a9514620001615780630439e24d146200018d57806309cf7ffc14620001e3578063165f6e70146200022c575b3480156200012257600080fd5b5060405162461bcd60e51b815260206004820152600e60248201526d2330b6363130b1b59032b93937b960911b60448201526064015b60405180910390fd5b620001786200017236600462000ea7565b62000405565b60405190151581526020015b60405180910390f35b3480156200019a57600080fd5b50620001ca620001ac36600462000ea7565b6001600160a01b039081166000908152600560205260409020541690565b6040516001600160a01b03909116815260200162000184565b348015620001f057600080fd5b506200021d6200020236600462000ea7565b6001600160a01b031660009081526004602052604090205490565b60405190815260200162000184565b3480156200023957600080fd5b506200021d6200024b36600462000ea7565b62000668565b620001786200026236600462000f22565b620006ea565b3480156200027557600080fd5b506000620001ca565b620002956200028f36600462000f70565b620008b3565b604080516001600160a01b0393841681529290911660208301520162000184565b348015620002c357600080fd5b506200021d60015481565b348015620002db57600080fd5b50600054620001ca906001600160a01b031681565b348015620002fd57600080fd5b506200021d6200030f36600462000ea7565b62000a62565b6200032c6200032636600462000ea7565b62000aae565b005b3480156200033b57600080fd5b506001546200021d565b3480156200035257600080fd5b50620001ca6200036436600462000f57565b6003602052600090815260409020546001600160a01b031681565b620001786200039036600462000f22565b62000ae0565b348015620003a357600080fd5b506200032c620003b536600462000f57565b62000bf6565b348015620003c857600080fd5b50620001ca620003da36600462000f57565b62000c60565b348015620003ed57600080fd5b506200021d620003ff36600462000ee5565b62000c8b565b60008034116200044f5760008051602062001d7d8339815191526040516200042d906200104a565b60405180910390a160405162461bcd60e51b815260040162000158906200104a565b600082905060006001600160a01b0316816001600160a01b031663481c6a756040518163ffffffff1660e01b815260040160206040518083038186803b1580156200049957600080fd5b505afa158015620004ae573d6000803e3d6000fd5b505050506040513d601f19601f82011682018060405250810190620004d4919062000ec6565b6001600160a01b03161415620005245760008051602062001d7d833981519152604051620005029062001170565b60405180910390a160405162461bcd60e51b8152600401620001589062001170565b604051633d8c1bef60e11b81523360048201523460248201526001600160a01b03821690637b1837de90604401602060405180830381600087803b1580156200056c57600080fd5b505af115801562000581573d6000803e3d6000fd5b505050506040513d601f19601f82011682018060405250810190620005a7919062000f35565b156200063957600080546040516001600160a01b03909116913480156108fc02929091818181858888f19350505050158015620005e8573d6000803e3d6000fd5b50604080516001600160a01b0385168152336020820152348183015290517fc5835c42104f59a9d40c52f62332be8a5680438e166679cee2d78a14e66831b89181900360600190a150600192915050565b60008051602062001d7d83398151915260405162000657906200112a565b60405180910390a150600092915050565b600080829050806001600160a01b03166347770db16040518163ffffffff1660e01b815260040160206040518083038186803b158015620006a857600080fd5b505afa158015620006bd573d6000803e3d6000fd5b505050506040513d601f19601f82011682018060405250810190620006e3919062000fee565b9392505050565b600080546001600160a01b03163314620007185760405162461bcd60e51b815260040162000158906200108e565b60405163f3fef3a360e01b81526001600160a01b03838116600483015234602483015284919082169063f3fef3a390604401602060405180830381600087803b1580156200076557600080fd5b505af11580156200077a573d6000803e3d6000fd5b505050506040513d601f19601f82011682018060405250810190620007a0919062000f35565b156200085a57600080846001600160a01b03163460405160006040518083038185875af1925050503d8060008114620007f6576040519150601f19603f3d011682016040523d82523d6000602084013e620007fb565b606091505b5091509150816200084f5760405162461bcd60e51b815260206004820152601e60248201527f4661696c656420746f2073656e642063726561746f7220616464726573730000604482015260640162000158565b509150620008ad9050565b60008051602062001d7d8339815191526040516200089f9060208082526013908201527215da5d1a191c985dc8191a590819985a5b1959606a1b604082015260600190565b60405180910390a160009150505b92915050565b6002805460018101825560009182527f405787fa12a823e0f2b7631cc41b3ba8828b3321ca811111fa75cd3aa3bb5ace0180546001600160a01b031916339081179091558190856200093f5760008051602062001d7d8339815191526040516200091d90620010df565b60405180910390a160405162461bcd60e51b81526004016200015890620010df565b6000868686604051602001620009589392919062001030565b604051602081830303815290604052805190602001209050600087878785604051620009849062000e4f565b620009939493929190620011b5565b604051809103906000f080158015620009b0573d6000803e3d6000fd5b50600083815260036020908152604080832080546001600160a01b0386166001600160a01b031991821681179092553385526005909352928190208054909216909217905560015490519192507f5774f3cc46e9e4cd05c1acf85691cce2bd72bcf731edf2b3c1b31b1011582db79162000a3391908a908a9086908990620011ea565b60405180910390a16001805490600062000a4d836200125d565b90915550909a92995091975050505050505050565b600062000a6f8262000d9e565b6000829050806001600160a01b031663eb175b7e6040518163ffffffff1660e01b815260040160206040518083038186803b158015620006a857600080fd5b6001600160a01b0381166000908152600460205260408120805434929062000ad890849062001228565b909155505050565b600080546001600160a01b0316331462000b0e5760405162461bcd60e51b815260040162000158906200108e565b6040516397fa14e360e01b81526001600160a01b0383811660048301528491908216906397fa14e390602401602060405180830381600087803b15801562000b5557600080fd5b505af115801562000b6a573d6000803e3d6000fd5b505050506040513d601f19601f8201168201806040525081019062000b90919062000f35565b1562000bd8576040516001600160a01b038416903480156108fc02916000818181858888f1935050505015801562000bcc573d6000803e3d6000fd5b506001915050620008ad565b60008051602062001d7d8339815191526040516200089f906200112a565b6001805490600062000c088362001243565b909155505060008181526003602090815260409182902080546001600160a01b031916905590513381527fa78f9b63395ba81a08ac63e2cb10341ecfcdd630642aab798e9881a2842fa321910160405180910390a150565b6002818154811062000c7157600080fd5b6000918252602090912001546001600160a01b0316905081565b604051630fb6a4a160e11b81526001600160a01b038281166004830152600091849162000d199190831690631f6d49429060240160206040518083038186803b15801562000cd857600080fd5b505afa15801562000ced573d6000803e3d6000fd5b505050506040513d601f19601f8201168201806040525081019062000d13919062000fee565b62000deb565b604051630fb6a4a160e11b81526001600160a01b038481166004830152821690631f6d49429060240160206040518083038186803b15801562000d5b57600080fd5b505afa15801562000d70573d6000803e3d6000fd5b505050506040513d601f19601f8201168201806040525081019062000d96919062000fee565b949350505050565b6040516001600160a01b038216602482015262000de89060440160408051601f198184030181529190526020810180516001600160e01b031663161765e160e11b17905262000e2e565b50565b62000de88160405160240162000e0391815260200190565b60408051601f198184030181529190526020810180516001600160e01b031663f82c50f160e01b1790525b80516a636f6e736f6c652e6c6f67602083016000808483855afa5050505050565b610ad580620012a883390190565b60008083601f84011262000e6f578182fd5b50813567ffffffffffffffff81111562000e87578182fd5b60208301915083602082850101111562000ea057600080fd5b9250929050565b60006020828403121562000eb9578081fd5b8135620006e38162001291565b60006020828403121562000ed8578081fd5b8151620006e38162001291565b6000806040838503121562000ef8578081fd5b823562000f058162001291565b9150602083013562000f178162001291565b809150509250929050565b6000806040838503121562000ef8578182fd5b60006020828403121562000f47578081fd5b81518015158114620006e3578182fd5b60006020828403121562000f69578081fd5b5035919050565b60008060008060006060868803121562000f88578081fd5b853567ffffffffffffffff8082111562000fa0578283fd5b62000fae89838a0162000e5d565b909750955060208801359450604088013591508082111562000fce578283fd5b5062000fdd8882890162000e5d565b969995985093965092949392505050565b60006020828403121562001000578081fd5b5051919050565b81835281816020850137506000828201602090810191909152601f909101601f19169091010190565b838152818360208301376000910160200190815292915050565b60208082526024908201527f446f6e6174696f6e73206d7573742062652067726561746572207468616e20306040820152632077656960e01b606082015260800190565b60208082526031908201527f596f7520646f6e27742068617665207468652072696768747320746f207065726040820152703337b936903a3434b99030b1ba34b7b71760791b606082015260800190565b6020808252602b908201527f50726f6a6563742066756e64696e6720676f616c206d7573742062652067726560408201526a061746572207468616e20360ac1b606082015260800190565b60208082526026908201527f436f6e747269627574696f6e20646964206e6f742073656e64207375636365736040820152657366756c6c7960d01b606082015260800190565b60208082526025908201527f50726f6a65637420636f6e7472616374206e6f7420666f756e64206174206164604082015264647265737360d81b606082015260800190565b848152606060208201526000620011d160608301858762001007565b905060018060a01b038316604083015295945050505050565b8581526080602082015260006200120660808301868862001007565b6001600160a01b03948516604084015292909316606090910152949350505050565b600082198211156200123e576200123e6200127b565b500190565b6000816200125557620012556200127b565b506000190190565b60006000198214156200127457620012746200127b565b5060010190565b634e487b7160e01b600052601160045260246000fd5b6001600160a01b038116811462000de857600080fdfe60806040523480156200001157600080fd5b5060405162000ad538038062000ad58339810160408190526200003491620001a1565b6002839055600180546001600160a01b0319163317905560408051608081018252848152602080820185905242928201929092526000606082015260068581558451919290916200008c9160079190870190620000de565b50604082015160028201556060909101516003909101805460ff1916911515919091179055600580546001600160a01b0319166001600160a01b039290921691909117905550506000600455620002ea565b828054620000ec9062000297565b90600052602060002090601f0160209004810192826200011057600085556200015b565b82601f106200012b57805160ff19168380011785556200015b565b828001600101855582156200015b579182015b828111156200015b5782518255916020019190600101906200013e565b50620001699291506200016d565b5090565b5b808211156200016957600081556001016200016e565b80516001600160a01b03811681146200019c57600080fd5b919050565b600080600060608486031215620001b6578283fd5b8351602080860151919450906001600160401b0380821115620001d7578485fd5b818701915087601f830112620001eb578485fd5b815181811115620002005762000200620002d4565b604051601f8201601f19908116603f011681019083821181831017156200022b576200022b620002d4565b816040528281528a8684870101111562000243578788fd5b8793505b8284101562000266578484018601518185018701529285019262000247565b828411156200027757878684830101525b8097505050505050506200028e6040850162000184565b90509250925092565b600181811c90821680620002ac57607f821691505b60208210811415620002ce57634e487b7160e01b600052602260045260246000fd5b50919050565b634e487b7160e01b600052604160045260246000fd5b6107db80620002fa6000396000f3fe6080604052600436106100e85760003560e01c80637b1837de1161008a578063d4b8399211610059578063d4b8399214610253578063db2c2f5114610269578063eb175b7e1461027e578063f3fef3a31461029357600080fd5b80637b1837de146101d7578063802c6ee5146101fa57806397fa14e314610210578063c1b4e4831461022357600080fd5b806347770db1116100c657806347770db11461016f578063481c6a751461018457806357fbcda5146101a45780636f9fb98a146101c457600080fd5b806302d05d3f146100ed57806306e99fef1461012a5780631f6d494214610134575b600080fd5b3480156100f957600080fd5b5060055461010d906001600160a01b031681565b6040516001600160a01b0390911681526020015b60405180910390f35b6101326102a6565b005b34801561014057600080fd5b5061016161014f36600461060a565b60006020819052908152604090205481565b604051908152602001610121565b34801561017b57600080fd5b50600454610161565b34801561019057600080fd5b5060015461010d906001600160a01b031681565b3480156101b057600080fd5b506101616101bf36600461060a565b61030f565b3480156101d057600080fd5b5047610161565b6101ea6101e5366004610658565b61034d565b6040519015158152602001610121565b34801561020657600080fd5b5061016160045481565b6101ea61021e36600461060a565b610476565b34801561022f57600080fd5b5061024361023e36600461066a565b6104b6565b6040516101219493929190610682565b34801561025f57600080fd5b5061016160025481565b34801561027557600080fd5b5061024361056b565b34801561028a57600080fd5b50600254610161565b6101ea6102a136600461062d565b61057f565b336000908152602081905260409020546102d057600380549060006102ca8361075f565b91905055505b33600090815260208190526040812080543492906102ef9084906106f5565b92505081905550346004600082825461030891906106f5565b9091555050565b6001600160a01b038116600090815260208190526040812054610331906105a1565b506001600160a01b031660009081526020819052604090205490565b6001546000906001600160a01b031633146103ba5760405162461bcd60e51b815260206004820152602360248201527f4f6e6c79206d616e616765722063616e2063616c6c20746869732066756e637460448201526234b7b760e91b606482015260840160405180910390fd5b3360009081526020819052604090205483906103e657600380549060006103e08361075f565b91905055505b33600090815260208190526040812080543492906104059084906106f5565b92505081905550826004600082825461041e91906106f5565b9091555050604080513081526001600160a01b03861660208201529081018490527f0b6befcc5394fae9c83c0564690b50c5f0dd4b8ac2a07ec90fac354040007fa19060600160405180910390a15060019392505050565b6040516000906001600160a01b038316903480156108fc029184818181858888f193505050501580156104ad573d6000803e3d6000fd5b50600192915050565b600a60205260009081526040902080546001820180549192916104d890610724565b80601f016020809104026020016040519081016040528092919081815260200182805461050490610724565b80156105515780601f1061052657610100808354040283529160200191610551565b820191906000526020600020905b81548152906001019060200180831161053457829003601f168201915b50505050600283015460039093015491929160ff16905084565b60068054600780549192916104d890610724565b60008160046000828254610593919061070d565b909155506001949350505050565b6105e6816040516024016105b791815260200190565b60408051601f198184030181529190526020810180516001600160e01b031663f82c50f160e01b1790526105e9565b50565b80516a636f6e736f6c652e6c6f67602083016000808483855afa5050505050565b60006020828403121561061b578081fd5b813561062681610790565b9392505050565b6000806040838503121561063f578081fd5b823561064a81610790565b946020939093013593505050565b6000806040838503121561063f578182fd5b60006020828403121561067b578081fd5b5035919050565b848152600060206080818401528551806080850152825b818110156106b55787810183015185820160a001528201610699565b818111156106c6578360a083870101525b5060408401869052601f01601f1916830160a00191506106ec9050606083018415159052565b95945050505050565b600082198211156107085761070861077a565b500190565b60008282101561071f5761071f61077a565b500390565b600181811c9082168061073857607f821691505b6020821081141561075957634e487b7160e01b600052602260045260246000fd5b50919050565b60006000198214156107735761077361077a565b5060010190565b634e487b7160e01b600052601160045260246000fd5b6001600160a01b03811681146105e657600080fdfea26469706673582212200b356b197aaa534eeafe2c42e39de8a72318cd17e5bd60d90a4d84332922c16764736f6c6343000804003308c379a0afcc32b1a39302f7cb8073359698411ab5fd6e3edb2c02c0b5fba8aaa264697066735822122012f13f75e29aa9800a109028919d604f97f350702000bccbe0a691e0f7549dc064736f6c63430008040033",
  "linkReferences": {},
  "deployedLinkReferences": {}
}